:4000000000100020110000006D0300006D03000080B500AF00F0AEF980B584B000AF021CFB1D1A70224A3B1C0B3312781A70214A3B1C0A3312781A701F4B1B68013BFB60A0
:400040001AE01E4B1868391C0B31FA68131C5B009B18C31801331B780B70184B1868391C0A31FA68131C5B009B18C31802331B780B70FB68013BFB60FB68002B0ADB0F4B59
:400080001968FA68131C5B009B185B5CFA1D12789A42D6D90A4B3A1C0B3212781A60094B3A1C0A3212781A60BD4604B080BDC046CCF1FF0FCDF1FF0F100E0000D0000020C8
:4000C0001CFF0B4020FF0B4080B500AF164B164A12688021C9020A431A601820FFF79CFF124B19221A60052000F052FB104B114A1278D2B21A60052000F05AFB0A4B0A4A50
:4001000011680D4A0A401A600C4B10221A600C4B802212061A600B4B802212061A600A4B0A4A1A60BD4680BD00010B402CFF0B4028FF0B40E5F1FF0FFFFFFBFF300202402C
:4001400008010B4004010B40000002400100008080B582B000AF72B6374B01221A70FB1D00221A7023E0FB1D1A78131C5B009B185B00324A9B183B603B681A7859780902C7
:400180000A43997809040A43DB781B0613431A1C3B6819795B791B020B439BB2101C191C00F068F9FB1DFA1D127801321A70FB1D1B78012BD7D9224A224B101C191C00F0ED
:4001C00069F9214B802252001A80204B01221A701F4BEE2212021A601E4B30221A601E4BD82292021A601D4BD82212011A601C4B992212041A601B4B992212041A601A4B26
:400200001D221A60194B1E221A60194B184A1278D2B202210A43D2B21A70154B144A1278D2B206210A43D2B21A70FFF74DFF00F071F9BD4602B080BD1C700F40440C00008E
:40024000500C0000700C000000600F4002600F400C00014000010440080104400803044010500F4030500F402000004000800F4000700F4010B5064C2378002B07D10548AA
:40028000002802D0044800E000BF0121217010BDE800002000000000400C000008B5084B002B03D00748084900E000BF07480168002903D0064A002A00D0904708BDC04698
:4002C00000000000400C0000EC000020C80000200000000080B500AF002000F00BFABD4680BDC04680B500AF002000F029FABD4680BDC04680B500AF012000F0FBF9012018
:4003000000F01EFABD4680BD80B500AF024BFA22D2001A80BD4680BDCC00002080B500AF00F0A0FB00F0FAF80B4B181C00F054FA0A4B181C00F0AAFA094B181C00F0FEFAEA
:40034000084B181C00F0F2FB62B6074B1B88181C00F096F9F9E7C046D5020000E5020000F502000009030000CC00002080B500AFFEE7C04680B586B000AF254B7B61254B21
:400380003B61234B7B61234B3B6132E03B691B68FB603B695B68BB603B699B683B6000237B600CE0FB681A68BB681A60BB680433BB60FB680433FB607B6804337B607A6848
:4003C0003B689A42EED13B69DB683B6000237B6008E0BB6800221A60BB680433BB607B6804337B607A683B689A42F2D13B6910333B617B695A1E9341DBB27A69013A7A61D1
:40040000002BC3D100F0ECFBFFF788FFFEE7C04601000000380E000080B582B000AF00237B600FE07B68032B04D80E4B7A689200D35800E00C4B0D4A796889008B507B68D9
:4004400001337B607B682F2BECD9FFF781FE084B00221A608023DB0501221A60BD4602B080BDC046000000006D03000000000020C000002080B582B000AF786039607A6816
:400480003B68101C00211A1C00F0D0FBBD4602B080BDC04680B586B000AF7860396000233B6100237B612EE07B699B007A68D3181B68BB603B1C0F33BA681A70BB68FF2299
:4004C0009343BB6017E03B695B003A68D3181B781A1CBB68D3183A69520039688A1852781A703B6901333B613B1C0F333A1C0F321278013A1A703B1C0F331B78002BE2D128
:400500007B6901337B617B69072BCDD9BD4606B080BDC04680B500AFBD4680BD80B500AF064B1B78002B04D100F00AF8034B01221A7000F057F8BD4680BDC046040100208C
:4005400090B583B000AF234B1B78DAB2FB1D3F218A431A701F4BFA1D127809210A43D2B21A701D4B1C4A1278D2B201210A43D2B21A701A4B194A1278D2B201210A43D2B246
:400580001A70174B181C00F03DF8154B181C00F057F8002000F064F8002000F071F8002000F07EF8BC1D00F0FCF8031C23700B4B0A4A1278D2B210210A43D2B21A70BB1D2D
:4005C0001B78181C00F0F1F800F02CF8BD4603B090BDC04671000F4090000F4091000F40E02E000080B500AF054B054A1278D2B2802149420A43D2B21A70BD4680BDC04653
:4006000071000F4080B582B000AF021CBB1D1A80034BBA1D12881A80BD4602B080BDC04600100F4080B500AF01E000F059F800F047F8031C1A1C10231340F6D1BD4680BD8D
:4006400080B582B000AF021CBB1D1A80034BBA1D12881A80BD4602B080BDC04680100F4080B582B000AF021CBB1D1A80034BBA1D12881A80BD4602B080BDC04640100F400E
:4006800080B582B000AF021CBB1D1A80034BBA1D12881A80BD4602B080BDC04660100F4080B582B000AF021CFB1D1A70034BFA1D12781A70BD4602B080BDC04681000F406D
:4006C00080B582B000AF054AFB1D12781A70FB1D1B78181CBD4602B080BDC04661000F4080B500AF024B1B889BB2181CBD4680BDA0100F4080B584B000AF021CFB1D1A7076
:400700000E4B1B68DAB23B1C0F3310218A431A70FB1D1B781B01DAB210231340D9B23B1C0F333A1C0F3212780A431A70034B3A1C0F3212781A60BD4604B080BD0001044019
:4007400080B584B000AF021CFB1D1A700E4B1B68DAB23B1C0F3320218A431A70FB1D1B785B01DAB220231340D9B23B1C0F333A1C0F3212780A431A70034B3A1C0F32127854
:400780001A60BD4604B080BD00010440000000000230800804D0C0460138FDD1C046C0467047EFF3108072B6704780F31088704780B582B000AF021CBB1D1A80BB1D1B88F4
:4007C000044A12785343181CFFF7E2FFBD4602B080BDC046DC00002080B582B000AF786000F04AF87B68181C00F008F8032000F011F800F037F8BD4602B080BD80B582B0D1
:4008000000AF7860024B7A681A64BD4602B080BD0000002090B585B000AF021CFB1D1A700623FB603C1C0B34FFF7BBFF031C23700B4B0B4A1268C021101C8843011CFA1DDB
:400840001078FA68041C9440221C0A431A603B1C0B331B78181CFFF7A8FFBD4605B090BD00E400E080B500AF024B01221A60BD4680BDC04600E100E080B500AF024B0122AA
:400880001A60BD4680BDC04680E100E080B582B000AF786000F048F87B68181C00F008F8032000F011F800F035F8BD4602B080BD80B582B000AF7860024B7A68DA64BD4689
:4008C00002B080BD0000002090B585B000AF021CFB1D1A701E23FB603C1C0B34FFF761FF031C23700A4B0A4A126892009108FA1D1078FA68041C9440221C0A431A603B1C26
:400900000B331B78181CFFF750FFBD4605B090BD00E400E080B500AF024B08221A60BD4680BDC04600E100E080B500AF024B08221A60BD4680BDC04680E100E080B582B005
:4009400000AF786000F04AF87B68181C00F008F8032000F011F800F037F8BD4602B080BD80B582B000AF7860024B7A681A65BD4602B080BD0000002090B585B000AF021C95
:40098000FB1D1A700623FB603C1C0B34FFF709FF031C23700B4B0B4A1268C021101C8843011CFA1D1078FA68041C9440221C0A431A603B1C0B331B78181CFFF7F6FEBD466D
:4009C00005B090BD04E400E080B500AF024B10221A60BD4680BDC04600E100E080B500AF024B10221A60BD4680BDC04680E100E090B583B000AF114B181C00F05FF80F4B8D
:400A0000181C00F075F8FC1DFFF7CBFE031C23700B4B0B4A1278D2B210210A43D2B21A70FB1D1B78181CFFF7C0FE00F071F8002000F02AF8BD4603B090BDC046BF5D000013
:400A400093000F4080B500AF054B054A1278D2B2802149420A43D2B21A70BD4680BDC04673000F4080B500AF064B1B78002B04D1FFF7BEFF034B01221A70FFF7E3FFBD4623
:400A800080BDC0460501002080B582B000AF021CFB1D1A70034BFA1D12781A70BD4602B080BDC04683000F4080B500AF024B1B78DBB2181CBD4680BD63000F4080B582B0D6
:400AC00000AF021CBB1D1A80034BBA1D12881A80BD4602B080BDC04644100F4080B500AF024B1B889BB2181CBD4680BD84100F4080B582B000AF021CBB1D1A80034BBA1D80
:400B000012881A80BD4602B080BDC04604100F4080B500AF01E0FFF7E1FFFFF7C5FF031C1A1C08231340F6D1BD4680BD80B582B000AF786000F04AF87B68181C00F008F8D0
:400B4000032000F011F800F037F8BD4602B080BD80B582B000AF7860024B7A689A64BD4602B080BD0000002090B585B000AF021CFB1D1A701623FB603C1C0B34FFF711FE02
:400B8000031C23700A4B0A4A11680A4A1140FA1D1078FA68041C9440221C0A431A603B1C0B331B78181CFFF700FEBD4605B090BD00E400E0FFFF3FFF80B500AF024B042216
:400BC0001A60BD4680BDC04600E100E080B500AF024B04221A60BD4680BDC04680E100E070B50E4B0E4D0024E81A85101E1CAC4204D0A100725890470134F8E700F00AF943
:400C00000849094A0E1C541AA5100024AC4204D0A300F05880470134F8E770BD200E0000200E0000200E0000280E000000B58218031C934202D019700133FAE700BD0000BA
:400C40000000000000300F40000400400F40000402000F4042300F4026310F4039320F401B330F400A400F4005410F4002600F40812F830D0B011B0133014030410249FFD9
:400C80004AFF4BFF4DA04F04501859045A045F01604062C06440654066C068C06AC06CC06EC0830287019108A501AA06AE03AF0EB002B104B201B308B404B502B701C030AB
:400CC000C102C5D0C620C751C83AC9FFCAFFCBFFCDAFCE0FCF04D018D280D427D804D904DA04DB04DF01E040E2C0E440E540E6C0E8C0EAC0ECC0EEC0160817401C101F115C
:400D000021082510264227202F123120360238103C023E084010412042044304452047044F015520560857025E845F2166207401774081088301C4C0CA50CC84CEC4D066CF
:400D4000D6F0D8202101350138803F10404549FF4AFF4BFF4F015018580459045A045D095F016040624064406540668068806A806C806E808E019201B001B601BE40C054A8
:400D8000C5ECC720C823C9FFCAFFCBFFCD83CE03CF01D018D280D401D804DA04DB04DC09DD99DF01E040E240E440E540E680E880EA80EC80EE8002020B4019401A801F8003
:400DC00027042F80410146A0470449054B404E025101520259457280734082409E20A910C001C208CA80D081D218D60B6B406D407320770481408320DA80DCE0E280E62022
:400E000083409F40AB04E680EA8010011101000004000000F8B5C046F8BC08BC9E4670479D02000019040000F8B5C046F8BC08BC9E46704775020000480E0000C80000206D
:400E4000200000002000000000000000D0070100C0F1FF0F00366E01C05D0000180000000000E02E00000000000000000000000000000000000000000000000000000000B3
:400E80000000000000000000000000000000000000000000000000000000000000000000000000000000000000000000000000000000000000000000000000000000000032
:400EC00000000000000000000000000000000000000000000000000000000000000000000000000000000000000000000000000000000000000000000000000000000000F2
:400F000000000000000000000000000000000000000000000000000000000000000000000000000000000000000000000000000000000000000000000000000000000000B1
:400F40000000000000000000000000000000000000000000000000000000000000000000000000000000000000000000000000000000000000000000000000000000000071
:0200000490303A
:02000000230ECD
:0200000490402A
:200000000000000000000000000000000000000000000000000000000000000000000000E0
:0200000490501A
:0C000000000204C81193110104CD34A1CA
:0200000490600A
:0100000001FE
:00000001FF